:020000040000FA
:10000000588600202502000051450000F92B000011
:10001000390200003B0200003D0200000000000029
:10002000FFFFFFFF00000000000000003F02000093
:1000300041020000000000004302000045020000F1
:10004000470200004B0200004F0200005302000074
:10005000570200005B0200005F0200006302000024
:10006000670200006B0200006F02000073020000D4
:10007000770200007B0200007F0200008302000084
:10008000870200008B0200008F0200009302000034
:10009000970200009B0200009F020000A3020000E4
:1000A000A7020000AB020000AF020000B302000094
:1000B000B7020000BB020000BF020000C302000044
:1000C000C7020000CB020000CF020000D3020000F4
:1000D000D7020000DB020000DF020000E3020000A4
:1000E000E7020000EB020000EF020000F302000054
:1000F000F7020000FB020000FF0200000303000003
:10010000070300000B0300000F03000013030000AF
:10011000170300001B0300001F030000230300005F
:100120002703000000F002F800F06CF80AA090E845
:10013000000C82448344AAF10107DA4501D100F0A2
:1001400061F8AFF2090EBAE80F0013F0010F18BF03
:10015000FB1A43F00103184714CE000034CE000010
:100160000A444FF0000C10F8013B13F0070408BFDD
:1001700010F8014B1D1108BF10F8015B641E05D07B
:1001800010F8016B641E01F8016BF9D113F0080F30
:100190001EBF10F8014BAD1C0C1B09D16D1E58BFC2
:1001A00001F801CBFAD505E014F8016B01F8016BF9
:1001B0006D1EF9D59142D6D370470000002300246C
:1001C00000250026103A28BF78C1FBD8520728BF67
:1001D00030C148BF0B60704766290BF02A80642944
:1001E00000F09881002070471FB50BF018F800F060
:1001F000D7FC0400002000210AF056F9E0601FBD82
:1002000010B510BD00F0CCFD1146FFF7EDFF08F072
:100210004FFD00F0EAFD03B4FFF7F2FF03BC00F06E
:100220002BFE00004FF038004349086043488047E8
:1002300043480047FEE7FEE7FEE7FEE7FEE7FEE78E
:10024000FEE7FEE7FEE73F4800473F4800473F48DC
:1002500000473F4800473F4800473F4800473F4866
:1002600000473F4800473F4800473F4800473F4856
:1002700000473F4800473F4800473F4800473F4846
:1002800000473F4800473F4800473F4800473F4836
:1002900000473F4800473F4800473F4800473F4826
:1002A00000473F4800473F4800473F4800473F4816
:1002B00000473F4800473F4800473F4800473F4806
:1002C00000473F4800473F4800473F4800473F48F6
:1002D00000473F4800473F4800473F4800473F48E6
:1002E00000473F4800473F4800473F4800473F48D6
:1002F00000473F4800473F4800473F4800473F48C6
:1003000000473F4800473F4800473F4800473F48B5
:1003100000473F4800473F4800473F4800473F48A5
:1003200000473F4800473F480047FEE73E483F49F7
:100330003F4A404B7047000020020040CD53000070
:10034000250100002B03000071230000AD2A0000EE
:100350002B0300002B0300002B0300002B030000E5
:100360002B0300002B030000E54100002B030000DD
:100370002B0300002B0300002B030000E5270000E7
:100380002B0300002B0300002B0300002B030000B5
:100390002D2800002B0300002B0300002B0300007E
:1003A0002B0300002B0300002B0300002B03000095
:1003B0002B0300002B0300002B0300002B03000085
:1003C0002B0300002B0300002B0300002B03000075
:1003D000814900002B0300002B030000CD4C0000DE
:1003E0002B0300002B0300002B0300002B03000055
:1003F0002B0300002B0300002B0300002B03000045
:100400002B0300002B0300002B0300002B03000034
:100410002B0300002B0300002B0300002B03000024
:100420002B0300002B0300005856002058860020A4
:10043000586600205866002010B54C1084EA53041A
:1004400004D54042C1F1000138BF491E1B4204D50A
:100450005242C3F1000338BF5B1E00F09AF814F05B
:10046000804F04D04042C1F1000138BF491E14F052
:10047000004F04D05242C3F1000338BF5B1E10BDD1
:100480000FB41CB5084B06AA7B446946009005983A
:1004900000F06DFB04460020694600F07BFB20461F
:1004A0001CBC5DF814FB0000090700002DE9F041B9
:1004B0000E460446002020622046E168884730B39B
:1004C000252805D0D4E901219047206A401CF2E795
:1004D000E168204600278847050018D0A5F14100B3
:1004E000192802D820354FF40067324629462046A5
:1004F0002760FFF771FE40B1012804D0F61D26F0F9
:1005000007060836D8E7361DD6E72846DAE7206A18
:10051000BDE8F0812DE9F0410646002410687529F8
:10052000314616A510D0AFF30080002802DA404211
:1005300013A507E031688A0701D512A502E0490733
:1005400004D511A5012401E0AFF3008000210A22A7
:1005500006F1240709E0B0FBF2FCB0FBF2F302FB6A
:100560001C00303078541846491C0028F3D123462B
:100570002A463046BDE8F04100F08DB8000000008A
:100580002D0000002B000000200000007047704785
:10059000704753EA020C00F069802DE9F04B4FF0F0
:1005A0000006002B1FBFB3FA83F503FA05F424FA03
:1005B00005F65E4012BF1643B2FA82F502FA05F460
:1005C000C5F120051EBF22FA05FC44EA0C042035C3
:1005D00056EA044C4FEA144418BF641C4FF000085C
:1005E0004FF00009904271EB030C39D3002919BF79
:1005F000B1FA81F701FA07F6B0FA80F700FA07F6C8
:10060000C7F120071EBF20FA07FC46EA0C06203778
:10061000B6FBF4FCA7EB0507103F07F01F0BCBF16F
:1006200020060CFA0BFB2CFA06F644BFB346002654
:10063000202FA4BF5E464FF0000B5BEA060C08BFFC
:100640004FF0010B19EB0B09ABFB027C48EB0608E2
:10065000C01B06FB02CC0BFB03CC71EB0C01C1E70A
:100660000B46024641464846BDE8F08B13B54FF0B5
:1006700000004FF00001AFF30080BDE81C40704760
:1006800010B500F091FA006810BD10B5044600F0F6
:100690008BFA046010BD2DE9F0470D46994692464D
:1006A000044600F124080168880604D5E06921F0B9
:1006B0001001216000E00120A84201DD471B00E09D
:1006C0000027A1697A1902EB0900081AA0612078B5
:1006D000C00602D42046AFF30080002608E0D4E92B
:1006E00001211AF806009047206A401C761C2062FF
:1006F0004E45F4DB2078C0060AD52046AFF30080D3
:1007000006E0D4E9012130209047206A401C206295
:10071000381EA7F10107F4DC07E0D4E9012118F83D
:1007200005009047206A401C2062281EA5F10105A3
:10073000F3DC2046AFF300802078000602D50220CB
:10074000BDE8F0870120FBE770472DE9FF4F0C461D
:100750001E464FF0FF378BB0D2E90001DDF8608014
:100760000A908A46C1F30A5505B93D46002108465C
:100770004FF00000BAF1000F00F4400005DA00EB82
:1007800080004FF4400101EA50004FEA9059B9F15E
:10079000010F00DDB9460A9850EA4A000ED044F62F
:1007A0001050A5F2FF3545432F14B8F1000F1ED0AD
:1007B0007542291E1EDDC9F100021CE0B8F1010FCF
:1007C0004FF0000001D0302103E0F24305E0215456
:1007D000401CB042FBDB30460022002121540B9923
:1007E000C1F80880C1E900200FB0BDE8F08FBD1B43
:1007F0006D1CDEE74A4600DA694206A800F05EFAA0
:1008000006AB93E8070003AB83E8070050460A995C
:1008100000F039FB8DE80700A0F500501F3800906C
:100820000398002D09DD42F21F014A46084403A93E
:100830000390684600F098FD08E0A0F500504A4695
:100840001F3803A90390684600F0A2FD8DE8070059
:100850000004000C03D04FF0FF30410800E01046C8
:10086000B8F1000F03D00022009215461EE0751E5D
:1008700005D400F09DF9303262556D1EF9D5B346AE
:100880000122084302D000227F1C04E02078302897
:1008900001D100227F1E002A099786D01DE0112D6C
:1008A00007DA00F085F9303262556D1C50EA01021A
:1008B000F5D1084302D00098C8B10EE00021681EAF
:1008C00005E0235C625C63542254401E491C814253
:1008D000F7DBAB46A81B401E0990002004F80B0074
:1008E0000B98099AC0F80880C0E9002B7CE7112614
:1008F0004FF0000859E72DE9F04F88460446D21D15
:1009000022F0070191B0D1E90001CDE90A0105F01B
:100910007FF802460B98C00F01D02D2007E0206819
:10092000810701D52B2002E0202101EAC000032A23
:10093000099001D0072A05DB03464146204600F016
:100940007DF90BE12078800601D5E06900E0062002
:10095000B8F1650F814606D0B8F1660F18D0B8F12E
:10096000670F70D131E00020B9F1110F009001DB69
:10097000112301E009F101030AAA01A90CA8FFF75C
:10098000E4FEDDE90C70002609F10105834647E02D
:1009900001204B4600904FF000470AAA01A90CA87D
:1009A000FFF7D3FEDDE90DB00C995D46002610B9C6
:1009B00009F101000D18B9EB050003D4C0F1FF36B1
:1009C00009F10105A5EB09002BE0B9F1010F01DAEE
:1009D0004FF001090020B9F1110F0090484601DDE8
:1009E000112300E003460AAA01A90CA8FFF7ADFEF7
:1009F000DDE90C704D4600268346207800070AD4B6
:100A0000AB4500DA5D4601A8012D04DD411911F85E
:100A1000011C302907D04F4502DA17F1040F04DA20
:100A2000012082460FE06D1EEEE7002F02DCED1B79
:100A30003E4403E0781CA84200DD7D1CB81B00F199
:100A4000010A4FF000472078000703D4AA4501DBD4
:100A50004FF0FF3A0021B7F1004F0DF143088DF838
:100A6000431024D002202B23002F01DA7F422D23B4
:100A70000A21021EA0F1010000DC5FB197FBF1FC2E
:100A800097FBF1F201FB1C7C17460CF1300C08F8C7
:100A900001CDEEE7A8F1010003702188090501D519
:100AA000452100E06521A0F1010800F8011C09982A
:100AB0000FA9A1EB0807FF1D00B10120411901EBAF
:100AC000EA70A1693844081A401EA0612078C00667
:100AD00002D42046AFF30080099828B1D4E901215F
:100AE0009047206A401C20622078C00622D520460C
:100AF000AFF300801EE0002E04DBB34502DD01A849
:100B0000805D00E03020D4E901219047206A401C3C
:100B10002062761CAAF101005FEA000A0AD100F007
:100B20003FF8C0680168405CD4E901219047206A21
:100B3000401C2062281EA5F10105DCDC07E0D4E999
:100B4000012118F8010B9047206A401C2062381ED2
:100B5000A7F10107F3DC2046AFF30080032011B0BA
:100B600043E6000001694A1C02610878704700B53D
:100B70008FB0CDE901310021059105497944CDE9D6
:100B8000031011466846FFF791FC0FB000BD00004E
:100B9000E5FFFFFF0A6802F8010B0A6070470000DA
:100BA000004870471856002000487047F85500204C
:100BB00030B5B0F10A024FEA900E71F100034EEA2F
:100BC000817EB0EB0E0061EB91014FEA101E4EEA00
:100BD000017E10EB0E0041EB11114FEA102E4EEA90
:100BE000016E10EB0E0041EB11214FEA104E4EEA60
:100BF000014E10EB0E0041EB1141401841F1000194
:100C00004FEAD00040EA41704FEAD10110EB800575
:100C10004FEA810444EA907444EB01046D1944EBFB
:100C20000404521BA3414FF0000348BF0A3200D511
:100C300030BD401C41F1000130BD00002DE9F04104
:100C40001F46044603260168072A01F4006004DBFE
:100C500008B116A505E016A503E008B115A500E04A
:100C600015A521F010002060A069C01EA0610FB181
:100C7000401EA0612046AFF300804FB1D4E90121AE
:100C800038469047206A401C2062C01C206206E063
:100C9000206AFAE7D4E9012115F8010B9047761E86
:100CA000F8D22046AFF30080BDE8F0814E414E00FF
:100CB0006E616E00494E4600696E66002DE9F04790
:100CC000814616468AB0334878440DC88DE80D0039
:100CD00030487844801C03AC0DC884E80D0041F610
:100CE0009B300844372190FBF1F290FBF1F5A5F120
:100CF000800501FB12041B3C02D56442012000E088
:100D00000020DFF890A080460027FA44AAF1BE0A2E
:100D10000DE0E00709D03246684607EB47010AEBD1
:100D2000810100F035FB8DE8070064107F1C002C6A
:100D3000EFD1184F7F44AC3F18E0E80714D007EB21
:100D400004100DF1180A90E80E008AE80E00C06841
:100D5000F04201D198190890324606A903A800F084
:100D600017FB03AB83E807006D10641C002DE4D172
:100D700032466946B8F1000F03A802D000F0F4FA39
:100D800001E000F005FBC9E90001C9F808200AB03C
:100D9000BDE8F08788C2000000487047F855002081
:100DA0007546FFF7F9FFAE4605006946534620F049
:100DB0000700854618B020B5FFF7B8FABDE8204017
:100DC0004FF000064FF000074FF000084FF0000B07
:100DD00021F00701AC46ACE8C009ACE8C009ACE8BA
:100DE000C009ACE8C0098D4670470446AFF30080E7
:100DF0002046FFF710FA00004FF0013C50F8042B9A
:100E000051F8043B9A4221D1A2EB0C03934313EA1D
:100E1000CC1317D150F8042B51F8043B9A4215D14A
:100E2000A2EB0C03934313EACC130BD150F8042B21
:100E300051F8043B9A4209D1A2EB0C03934313EA05
:100E4000CC13DBD04FF00000704700BFD01A01BABE
:100E5000B1FA81F101F0180122FA01F0CB40C1F1A1
:100E60002001DBB2C0B2C01A2CFA01F3D11A9143AF
:100E700011EAC311E6D1704701491820ABBEFEE765
:100E80002600020070475FEA400C08BF91F0000F97
:100E90004FEA8C234FEAC12243EA51514FEA1C50DA
:100EA00018BF00F5F0404FEA300018BF41F0004194
:100EB0005FEA6C5C00F02980BCF1FF3F08BF40F0A6
:100EC00080407047130C06BF12044FF0100C4FF017
:100ED000000C130E04BF12020CF1080C130F04BF18
:100EE00012010CF1040C930F04BF92000CF1020CE0
:100EF000D30F04BF52000CF1010C11464FF0000259
:100F0000A0F11F00A0EB0C00704711F0004F08BFCC
:100F1000704731F000413FF4D5AF0B0C06BF090418
:100F20004FF0100C4FF0000C0B0E04BF09020CF137
:100F3000080C0B0F04BF09010CF1040C8B0F04BF4C
:100F400089000CF1020CCB0F04BF49000CF1010C1D
:100F5000CCF12003A0EB0C0022FA03F302FA0CF20E
:100F600041EA030100F10100704720F07F4C80EA64
:100F7000030023F07F47ACEB070303F57C5300F03D
:100F8000004003F1FF032DE980494FEA154B09B4F6
:100F90004FEA144325EA0B4E24EA03480FF20426D5
:100FA00006EB132749083E785FEA320203FB066727
:100FB000C7F5000707FB06F64FEA54374FEAD64657
:100FC00006F1020607FB066CCCF1005C4FEA1C47F9
:100FD0002CEA074C07FB06F40CFB06F504EB154660
:100FE0004FEA961634BF00204FF000404FEAD13749
:100FF00006FB07FC4FEA1C4C0CFB0BF7D21B03FB58
:101000000CF761EB07010CFB0EF7B0EB074072EB3E
:1010100017420CFB08F734BFA2EB0742B2EB0742C2
:1010200061EB17414FEA0C444FEA910706FB07FCBE
:101030004FEA1C4C0CFB0BF7B0EBC74072EB57327E
:1010400003FB0CF734BFA2EBC742B2EBC74261EB24
:1010500057310CFB0EF7B0EBC70072EB57720CFB6D
:1010600008F734BFA2EBC702B2EBC70261EB5771BE
:10107000039F4FEA816141EA921104EBCC044FEAED
:10108000D1374FEA826206FB07FC42EA90124FEA30
:1010900080604FEA1C4C0CFB0BF7D21B03FB0CF7D8
:1010A00061EB07010CFB0EF7B0EB074072EB174248
:1010B0000CFB08F734BFA2EB0742B2EB074261EB2F
:1010C00017414FEA8C554FEA910704EB9C2406FB2D
:1010D00007FC4FEA1C4C0CFB0BF7B0EBC74072EB64
:1010E000573203FB0CF734BFA2EBC742B2EBC74247
:1010F00061EB57310CFB0EF7B0EBC70072EB577288
:101100000CFB08F734BFA2EBC702B2EBC70261EBDE
:10111000577115EB4C254FEA816141EA92114FEA74
:1011200082624FEAD13742EA901206FB07FC44F193
:1011300000044FEA80604FEA1C4C0CFB0BF7D21BFB
:1011400003FB0CF761EB07010CFB0EF7B0EB07405C
:1011500072EB17420CFB08F734BFA2EB0742B2EB6D
:10116000074261EB174115EB1C154FEA813141EA4B
:1011700092414FEA823242EA90424FEA80304FEA8F
:101180000C7644F1000448EA03434EEA0B484FF062
:10119000000EB2EB080C71EB030724BF6246394620
:1011A0004EEB0E0E4FF0000B0018524149414BEB35
:1011B0000B0BB2EB080C71EB03077BF1000B24BFA8
:1011C000624639464EEB0E0E4FF0000B00185241AE
:1011D00049414BEB0B0BB2EB080C71EB03077BF1B6
:1011E000000B24BF624639464EEB0E0E51EA020751
:1011F00018BF46F0010616EB0E7655F1000254F1C9
:10120000000103D5BDE88901BDE80088BDE889017A
:10121000BDE80048B619524141EB0101A3F10103B9
:10122000704780807F7E7D7C7B7A79787776767553
:101230007473727171706F6E6E6D6C6C6B6A6A69CB
:101240006868676666656464636362616160605F65
:101250005F5E5E5D5D5C5C5B5B5A5A5959585857DE
:101260005756565555555454535352525251515046
:1012700050504F4F4F4E4E4D4D4D4C4C4C4B4B4B99
:101280004A4A4A49494948484847474747464646DF
:10129000454545444444444343434342424242411A
:1012A0004141002B26D4770021D01CB54FEA3707E7
:1012B00003B44FF010004FF010014FF000000FBCCE
:1012C000BDE810400BF1010BBBF1010F08BF5FEA55
:1012D000170722BF12F1010211F101014FF0004185
:1012E00043F1000300F0004043EA00007047F9D3E7
:1012F0005708DAE746EA064613F1400F4FEA16466A
:101300001FDD13F1200FDFBF16430A4600212033F3
:101310005B42C8D0C3F1200746EA064602FA07F747
:101320004FEA164646EA0706C3F1200722FA03F2FF
:1013300001FA07F721FA03F14FF0000342EA07022E
:10134000B1E746EA020646EA06464FEA164646EA8C
:101350000106BCBF46EA0646360C4FF000034FF0CC
:1013600000024FF000019EE72DE9C048934630B4DB
:1013700091E8380007C831EA400C48BF34EA430C12
:1013800003D5FFF7F2FDFFF78CFFF0BCBDE8008846
:101390002DE9C048934630B491E8380007C810F0F2
:1013A000804F08BF13F0804F03D100F005F8FFF71E
:1013B00078FFF0BCBDE8008820F07F4780EA03009A
:1013C00023F07F4C07EB0C03A3F57C5300F00040A7
:1013D000A3F1FE0392F0000F00F0B38095F0000F30
:1013E00000F077802DE901494FEA11404FEA144699
:1013F00021EA004800FB06FC24EA064708FB06F643
:1014000007FB08F800FB07F718EB06484CEB164CF7
:101410004FEA124B18EB07484FEA15464CEB1740C2
:1014200022EA0B4E0BFB06FC25EA06470EFB06F6EE
:1014300007FB0EFE0BFB07F71EEB064E4CEB164CA4
:101440004FF000061EEB074E4CEB174B18EB0B084A
:1014500040F1000018EB0E0B58EB000840F10000C3
:101460008F1A4FF000013CBFC943661B14BFB5EB98
:10147000040C00213CBFC943F61B4FEA17444EEA57
:101480008E0E27EA04454FEA1C4704FB07622CEA4C
:10149000074C05FB07F70CFB05F604FB0CFC16EBF1
:1014A000074642EB174216EB0C4642EB1C421BEB85
:1014B000060658EB0202414146EA9E0601D5BDE808
:1014C0000189B619524141EB0101A3F10103BDE8C5
:1014D00001894FEA14454FEA114724EA054621EAFB
:1014E000074C05FB07F406FB07F70CFB06F105FBB1
:1014F0000CFC11EB074144EB17444FEA124711EB88
:101500000C4144EB1C4422EA074C05FB07F206FBA6
:1015100007F70CFB06F605FB0CFC16EB074642EB47
:10152000174216EB0C4642EB1C456A1854F10001B9
:1015300048BF7047B619524141EB0101A3F10103C5
:10154000704795F0000F37D04FEA11424FEA144729
:1015500021EA024624EA074C02FB07F106FB07F7E3
:101560000CFB06F402FB0CFC14EB074441EB1741A7
:101570004FEA154714EB0C4441EB1C4125EA074C9C
:1015800002FB07F506FB07F70CFB06F602FB0CFC5B
:1015900016EB074645EB174516EB0C4645EB1C4290
:1015A000121951F1000148BF7047B619524141EB81
:1015B0000101A3F1010370474FEA14454FEA1147B7
:1015C00024EA054621EA074C05FB07F106FB07F76D
:1015D0000CFB06F24FF0000605FB0CFC12EB074279
:1015E00041EB174112EB0C4251EB1C4148BF7047D5
:1015F000921841EB0101A3F10103704710B5EE48C9
:101600000078002839D1ED480088B0F5F07F34DD4E
:10161000EB480088B0F5F07F2FDDEA480078EA4912
:101620000978884211DD0120E3490870E749087014
:10163000B420E7490860002002F072FD08F0D6F8F7
:101640009FEDE40AE44880ED020ADF480078DD49B6
:101650000978884211DD0120D7490870DF490870F8
:10166000B420DB490860002002F05AFD08F0BEF803
:101670009FEDD80AD84880ED020ACF4800780028AC
:101680007ED0D248007800287BD0D548007818BB9F
:1016900003F0ACFFD3490870084600781238087090
:1016A000C8480078372809DDC6480078CE4909784F
:1016B000401A142802DB0820C9490870CB4800688A
:1016C000C3490968884207DDC949CA4A92F900201E
:1016D00031F9120002F024FDC1480078082818D121
:1016E0002820C0490870BC4890ED020AF3EE0E0AAB
:1016F000B4EEE00AF1EE10FA08DA90ED020AFBEE21
:101700000E0AB4EEE00AF1EE10FA02D80120B44954
:101710000870B3480078012839D150220121B1481E
:10172000007807F00DFFAF490870A74800782D2812
:101730002DDDB149A4480078801C085C962826DA83
:10174000A1480078801C085C502820DDA24890ED5C
:10175000020ADFEDAA0AB4EEE00AF1EE10FA08DAA6
:1017600090ED020ADFEDA60AB4EEE00AF1EE10FAFF
:101770000DD89C480078A34908700846007801E01D
:10178000CEE04BE0974908700220954908709448D4
:10179000007802280ED19B480078924908709A4838
:1017A0000078322806DD03208D490870012132209F
:1017B00005F00CFE8A48007803282FD19348008852
:1017C000401C9249088003F011FF864908700846C2
:1017D0000078123808708E48864991F9001030F868
:1017E00011008A490988884218DC76480078322836
:1017F00014DA75480078322810DA0020834908800E
:101800006D49087071490870824908707449087000
:101810000021322005F0DAFD03F0DEFB6F4800788E
:1018200000287DD06E48007818BB03F0C7FE6D49D4
:10183000087008460078123008706348007837282E
:1018400009DD6148007870490978401A142802DBE4
:10185000082063490870654800685D490968884246
:1018600007DD6349634A92F9002031F9120002F062
:1018700057FC5B480078082818D173205949087034
:10188000554890ED020AF3EE0E0AB4EEE00AF1EECE
:1018900010FA08DA90ED020AFBEE0E0AB4EEE00A46
:1018A000F1EE10FA02D801204D4908704C4800783A
:1018B000012838D19F2250214A48007807F040FE85
:1018C000484908703F4800782D282CDD52493D4892
:1018D0000078801C085C0A2825DD3A480078801CC6
:1018E000085C50281FDA3C4890ED020ADFED430AFD
:1018F000B4EEE00AF1EE10FA08DA90ED020ADFED3C
:10190000400AB4EEE00AF1EE10FA0CD8354800783F
:101910003C4908700846007832490870022000E00F
:1019200048E02F4908702E48007802280ED135482B
:1019300000782C4908702C480078322806DD0320F6
:10194000274908700121322005F040FD2448007825
:1019500003282FD12D480088401C2C49088003F013
:101960002DFE20490870084600781230087028487B
:10197000204991F9001030F8110024490988884263
:1019800018DC10480078322814DA0F480078322822
:1019900010DA00201D490880074908700F490870B7
:1019A0001E4908700E4908700021322005F00EFD16
:1019B00003F012FB10BD0000EB010020CA02002062
:1019C000CC020020B8010020B9010020EC01002069
:1019D000400100200000000080550020ED010020A3
:1019E000F0010020C8000020BA01002038010020CA
:1019F00000020020C00000205E5100200000704264
:101A0000000070C2F1010020BB0100200E02002086
:101A1000F2010020EE01002020510020EF01002003
:101A200010B5A7480078D8B90121322005F0CEFCC6
:101A3000A4480088A4490988401A00B2A349088034
:101A40000020A34908700120A2490870A24800683C
:101A5000A2490968884202DC01209949087022E104
:101A600097480078012839D196209C4908600120C8
:101A7000974908700020974908700120984908701C
:101A80009048008890490988401A00B28F49088020
:101A90009448B0F9000041F270718842DFDB002009
:101AA0008F4908708A49087001208A4908708A485D
:101AB00000680A28D3DC8848006810F10A0FCEDBE2
:101AC00000208849088002207D49087007F08EFEBA
:101AD0009FED850A854880ED020AE4E078480078A9
:101AE000022829D196207D49086001207849087094
:101AF0000020784908704FF4C870744908807B480A
:101B000090ED020ADFED7A0AB4EEE00AF1EE10FA87
:101B1000A5DB00206E49087001206E4908706E48F0
:101B200000680A289BDC6C48006810F10A0F96DBFD
:101B3000032063490870B6E06148007803283CD16F
:101B40006FF0950065490860012061490870002028
:101B5000604908704FF63E605C490880634890ED2C
:101B6000020ADFED640AB4EEE00AF1EE10FA02DBDD
:101B700001206149087053480088642807DC5248F6
:101B800000886428A9DD5C4800780028A5D00020E2
:101B90004F49087001204F4908704F4800680A28D3
:101BA0009BDC4D48006810F10A0F7CDB042044499F
:101BB000087000205049087075E0414800780428FA
:101BC00030D1642045490860012041490870002057
:101BD000404908703B4800883B490988401A00B2D8
:101BE0003A49088001203E4908703E48B0F900009B
:101BF000B0F5FA6F57DB00200870354908700120F6
:101C000034490870344800680A284CDC32480068BF
:101C100010F10A0F47DB00203249088005202849CF
:101C2000087040E02648007805280DD1334807F0B9
:101C300027FA324840786F2835D1062020490870AD
:101C400000202E4948702EE01D48007806282AD131
:101C500064202249086001201D49087000201D49A8
:101C600008701848008818490988401A00B21749B6
:101C70000880234890F84D00462814DD204890F84D
:101C8000500046280FDD1E4890F8530046280ADD14
:101C900003F0A2F900200A4908701A4908700021CF
:101CA000322005F093FB06480078052807DB012069
:101CB000154908706F204870084607F00BFA10BDF0
:101CC000E5010020CA020020CC020020D000002044
:101CD0004401002045010020540100204001002063
:101CE000D8000020D6000020000000008055002011
:101CF000000070420000F042E6010020E0500020A9
:101D0000C04D0020E40100200051002070B52DEDF1
:101D1000048B0446B0EE408AF0EE608A00EE104A72
:101D2000F8EE400AB0EE680A00EE880AB0EE409A7B
:101D30009F220121BDEEC90A10EE100A07F000FC37
:101D40000546E8B2BDEC048B70BD00002DE9F047FC
:101D500005460E4691461F464FF0000AD046002029
:101D6000F94908709F220121384607F0E9FBC7B204
:101D70004C4652E2BAF1000F09D105EB850004EBA5
:101D80004010305C002801D04FF0010A43E205EB1F
:101D9000850004EB4010305C0028F7D108F1010009
:101DA00000F0FF08E84880F8008005EB850004EBB0
:101DB0004010401C305C00287DD1601CB8427ADCA9
:101DC00005EB850004EB4010801C305C002873D1CB
:101DD000A01CB84270DC05EB850004EB4010C01C71
:101DE000305C002869D1E01CB84266DC05EB850058
:101DF00004EB4010001D305C00287DD1201DB8424E
:101E00007ADC05EB850004EB4010401D305C0028B7
:101E100073D1601DB84270DC05EB850004EB401007
:101E2000801D305C002869D1A01DB84266DC05EB3E
:101E3000850004EB4010C01D305C002876D1E01D09
:101E4000B84273DC05EB850004EB40100830305CD1
:101E500000286CD104F10800B84268DC05EB85006D
:101E600004EB40100930305C002865D104F1090012
:101E7000B84261DC05EB850004EB40100A30305CB1
:101E800038B904F10A00B84203DC4FF0000AC4B2CA
:101E9000C1E104F10A00B8424ADCFF2005EB8501EC
:101EA00004EB41117054FF2105EB850004EB401059
:101EB000401C315402E0A0E189E16CE105EB8500B2
:101EC00004EB4010801C315405EB850004EB4010FE
:101ED000C01C315405EB850004EB4010001D31544B
:101EE00005EB850004EB4010401D315405EB8500E7
:101EF00004EB4010801D02E02BE1FFE0D0E0315404
:101F000005EB850004EB4010C01D315405EB850046
:101F100004EB40100830315405EB850004EB401011
:101F20000930315404F10A00C4B274E184E046E09F
:101F300004F10A00C4B26EE104F10900B8423ADCCF
:101F4000FF2005EB850104EB41117054FF2105EBE7
:101F5000850004EB4010401C315405EB850004EB78
:101F60004010801C315405EB850004EB4010C01C70
:101F7000315405EB850004EB4010001D315405EB96
:101F8000850004EB4010401D315405EB850004EB47
:101F90004010801D315405EB850004EB4010C01D3E
:101FA000315405EB850004EB40100830315404F146
:101FB0000900C4B22FE104F10900C4B22BE104F11D
:101FC0000800B84234DCFF2005EB850104EB411129
:101FD0007054FF2105EB850004EB4010401C315488
:101FE00005EB850004EB4010801C315405EB8500A7
:101FF00004EB4010C01C315405EB850004EB40108D
:10200000001D315405EB850004EB4010401D315498
:1020100005EB850004EB4010801D315405EB850075
:1020200004EB4010C01D315404F10800C4B2F2E0CA
:1020300004F10800C4B2EEE0E01DB8422DDCFF2040
:1020400005EB850104EB41117054FF2105EB850080
:1020500004EB4010401C315405EB850004EB4010AC
:10206000801C315405EB850004EB4010C01C31543A
:1020700005EB850004EB4010001D315405EB850095
:1020800004EB4010401D315405EB850004EB40107B
:10209000801D3154E01DC4B2BDE0E01DC4B2BAE001
:1020A000A01DB84227DCFF2005EB850104EB4111A0
:1020B0007054FF2105EB850004EB4010401C3154A7
:1020C00005EB850004EB4010801C315405EB8500C6
:1020D00004EB4010C01C315405EB850004EB4010AC
:1020E000001D315405EB850004EB4010401D3154B8
:1020F000A01DC4B28FE0A01DC4B28CE0601DB84228
:1021000024DCFF2005EB850104EB41117054FF2115
:1021100005EB850004EB4010401C315405EB8500B5
:1021200004EB4010801C315405EB850004EB40109B
:10213000C01C315405EB850004EB4010001D3154E8
:10214000601DC4B267E000001D020020601DC4B223
:1021500061E0201DB8421BDCFF2005EB850104EB8C
:1021600041117054FF2105EB850004EB4010401C29
:10217000315405EB850004EB4010801C315405EB15
:10218000850004EB4010C01C3154201DC4B242E055
:10219000201DC4B23FE0E01CB84215DCFF2005EB77
:1021A000850104EB41117054FF2105EB850004EB20
:1021B0004010401C315405EB850004EB4010801C9E
:1021C0003154E01CC4B226E0E01CC4B223E0A01CE1
:1021D000B8420FDCFF2005EB850104EB4111705480
:1021E000FF2105EB850004EB4010401C3154A01C7E
:1021F000C4B210E0A01CC4B20DE0601CB84208DC00
:10220000FF2005EB850104EB41117054601CC4B242
:1022100001E0601CC4B2601CC4B2BC427FF7AAAD2E
:102220004046BDE8F08700002DE9F0472DED088B12
:1022300005460F4614461E46DDE910982078001D1D
:102240002070207819F8000002283FD12078332828
:1022500002DC2078801C20702178091D715C2278B6
:10226000B25C881A08F0DDFB41EC1A0B9FED3B0BCA
:1022700053EC102B08F03CFC41EC190B9FED390B93
:1022800053EC102B08F018FA41EC180B08F02EF95B
:102290002860B8F1020F0AD195ED000AB5EEC00A28
:1022A000F1EE10FA03D29FED310A85ED000AB8F184
:1022B000010F28D195ED000AB5EEC00AF1EE10FA33
:1022C00021DD9FED2A0A85ED000A1CE02178091D19
:1022D000715C2278B25C881A08F0A3FB41EC1A0BFF
:1022E0009FED1E0B53EC102B08F002FC41EC190B78
:1022F0009FED1C0B53EC102B08F0DEF941EC180B92
:1023000008F0F4F82860D5ED000A207800EE100AF5
:10231000B8EE400A20EE800A10EE101A084608F0C7
:10232000DDFE41EC190B2178705C08F091FB41EC6B
:102330001B0B9FED0A0B53EC102B08F0D9FB41EC63
:102340001A0B53EC192B08F0DFFD41EC180B08F0C9
:10235000CDF83860BDEC088BBDE8F08700000000C8
:102360000000F03F000000000000104000000000EE
:1023700010B50448806D00F0010008B106F0E8FDDA
:1023800010BD0000002008402DE9F04788B0002172
:102390000C460D460E460F46884689460691079123
:1023A00004910591029103919348B0F9000093497B
:1023B00008609148B0F90200914908608E48B0F970
:1023C0000400904908609048B0F900008F49086007
:1023D0008D48B0F902008E4908608B48B0F90400BE
:1023E0008C4908604FF0000A16E0844850F82A1023
:1023F0000C1945EBE175824850F82A00861947EB25
:10240000E077804850F82A0010EB080849EBE079A3
:102410000AF1010000F0FF0ABAF1050FE5DB4FF009
:10242000000A21E0794850F82A20DDE90601101859
:1024300041EBE273CDE90603754850F82A20DDE947
:102440000401101841EBE273CDE90403714850F820
:102450002A20DDE90201101841EBE273CDE9020305
:102460000AF1010000F0FF0ABAF1020FDADB0522DF
:10247000002320462946FDF7DFFFCDE9000108F0E3
:102480005BFE00EE100ADFED640A80EE201A63485E
:1024900080ED001A0522002330463946FDF7CCFFB7
:1024A000CDE9000108F048FE00EE100ADFED5A0AFF
:1024B00080EE201A594880ED011A0522002340467B
:1024C0004946FDF7B9FFCDE9000108F035FE00EE01
:1024D000100ADFED510A80EE201A504880ED021AF2
:1024E00002220023DDE90601FDF7A6FFCDE9000188
:1024F00008F022FE00EE100ADFED490A80EE201AF5
:10250000484880ED001A02220023DDE90401FDF7AE
:1025100093FFCDE9000108F00FFE00EE100ADFED99
:10252000400A80EE201A3F4880ED011A0222002363
:10253000DDE90201FDF780FFCDE9000108F0FCFDB7
:1025400000EE100ADFED360A80EE201A354880EDE5
:10255000021A4FF0000A21E0CAF10300274951F89E
:102560002000CAF10401254A42F82100CAF1030003
:10257000234951F82000CAF10401214A42F8210000
:10258000CAF103001F4951F82000CAF104011D4A95
:1025900042F821000AF1010000F0FF0ABAF1040F2D
:1025A000DADB4FF0000A21E0CAF10000174951F8C8
:1025B0002000CAF10101154A42F82100CAF10000C9
:1025C000134951F82000CAF10101114A42F82100D3
:1025D000CAF100000F4951F82000CAF101010D4A6B
:1025E00042F821000AF1010000F0FF0ABAF1010FE0
:1025F000DADB08B0BDE8F087F2020020BC5500200D
:10260000D0550020E4550020E00200200403002003
:102610000C030020140300200000804674550020A5
:10262000333383416855002010B5274800780028CF
:1026300042D0264890ED010AFAEE040AB4EEE00A10
:10264000F1EE10FA07D822480078152803DB0120A4
:102650002049087037E02B2004F048FE1E4908701E
:102660000846007878B901201C49087007F0BEF8C8
:102670009FED1B0A154880ED020A1A4801F050FD33
:10268000B4201949086014480078E0B11048007877
:10269000192818DB012015490870154801F040FD84
:1026A0006420114908601348008813490988401ABA
:1026B00000B21249088006E00020084908700B4962
:1026C00008700449087010BDC1000020805500202A
:1026D000DA010020EA010020DE020020DC010020F7
:1026E0000000000030F8FFFF40010020E40100205E
:1026F00060F0FFFFCA020020CC020020D0000020C2
:1027000010B52F480078D0B92E480078B8B92E48B7
:1027100002782E4801782E4802F068F92D49088089
:102720004FF468724FF437712A48008806F008FFAA
:102730002849088008460188202004F06BF92048C9
:10274000007808B3244890ED020ABDEEC00A10EEEE
:10275000101A224890ED000ABDEEC00A10EE102AB1
:102760001B4802F0D3F91B4908804FF468724FF4FC
:1027700037711848008806F0E3FE164908800846BD
:102780000188202004F046F90E480078B8B10022F4
:102790001348B0F900100E4802F072F90D49088094
:1027A0004FF468724FF437710A48008806F0C8FE8B
:1027B0000849088008460188202004F02BF910BD44
:1027C000DC010020E4010020C8000020C700002038
:1027D00048540020C200002080550020CC0000207A
:1027E000D000002008B50F4800680090009800F065
:1027F000080018B10C49002007F0C6FD00BF009882
:1028000000F0020068B107481438006840F0020088
:10281000044914390860081F006840F40030091F9B
:10282000086008BD186E0840C402002008B50E48B4
:1028300000680090009800F0080008B106F060FB06
:10284000009800F0020068B107481838006840F4AA
:102850000030054918390860081D006840F0020082
:10286000091D086008BD0000186E09402DE9F041FF
:1028700088B007463B249F23012239462046FFF7B4
:1028800065FA80465F4880F83B805F4890F83D00DD
:1028900004EB840100EB4110385C48BB9F2001230E
:1028A00007AA39460090204602F0B8FE06469F204F
:1028B000012306AA39460090204603F031F8054668
:1028C000AE4207DB36B1514B514A3946204602F041
:1028D000E1FE1FE0AE4207DA35B14C4B4C4A3946B7
:1028E000204603F059F815E0002008B0BDE8F0815B
:1028F00048484949454A464BCDE90132CDE90310E4
:102900009F2041490090A01C0A5C012339462046C3
:1029100002F0FCFE3E4890F83B003D4981F83D0046
:102920003A4890F83B00394981F83D003A4890F820
:102930003B00394981F83D00364890F83B00354965
:1029400081F83D00354890F83B0050B1344890F88C
:102950003B0030B12C4890F83D002B4981F83B00FA
:1029600013E02A4991F83B10294A92F83B20881835
:1029700000EBD071C1F34701234A82F83B101046A7
:1029800090F83B00114681F83D00244890F83B0048
:1029900080B1244804709FED240A244880ED000A89
:1029A0001D4890F83B0000EE100AB8EE400A20489F
:1029B00080ED000A1A48005D80B11E4804709FED4A
:1029C0001A0A1D4880ED000A124890F83B0000EEFC
:1029D000100AB8EE400A194880ED000A184890F82D
:1029E0003B00174981F83D00164890F83B00154917
:1029F00081F83D00084690F83B001349087001201B
:102A000073E700008C5300209C5100205E51002091
:102A100020510020D2520020945200201053002058
:102A20004E530020B801002000000000BC0100202F
:102A3000C4010020B9010020C0010020C80100200D
:102A4000CA53002008540020B40100201548006833
:102A5000FA2803DA00201449087022E011480068BF
:102A6000B0F5827F03DA01200F49087019E00D48A4
:102A70000068B0F5877F03DA02200B49087010E088
:102A800008480068B0F5967F03DA0320064908700D
:102A900007E004480068B0F5967F02DB0420024995
:102AA00008707047400100201202002005480068AD
:102AB00000F0010028B10348006840F0010001491E
:102AC000086070470020004010B50146002003E078
:102AD00000220A4B1A54401CFF28F9DD4FF44860CD
:102AE00007E00A5C054B9A5C521C0B5C034CE254F9
:102AF000401CB0F5165FF4DB10BD000068540020E8
:102B000010B504F037FB04F0C5FB2E48B0F9000007
:102B10002D4908802D48B0F9000048802C48B0F9B4
:102B2000000088802B48B0F900002B4908802B4812
:102B3000B0F9000048802A48B0F900008880FFF70B
:102B400023FC284890ED023ADFED273A23EE233AA2
:102B5000F0EE432A90ED013ADFED233A23EE233ADB
:102B6000B0EE432A90ED003ADFED1F3A23EE233A10
:102B7000F0EE431A1D4890ED023ADFED1D3A23EEC8
:102B8000233ADFED1C3A23EE233AB0EE431A90EDE0
:102B9000013ADFED173A23EE233ADFED163A23EE42
:102BA000233AF0EE430A90ED003ADFED113A23EEBE
:102BB000233ADFED103A23EE233AB0EE430A00F059
:102BC0001DF810BDE0000020F2020020E20000200D
:102BD000E4000020DA000020E0020020DC000020F9
:102BE000DE0000207455002000008046685500205B
:102BF00089A18B3A3333834100BFFEE700B52DED49
:102C0000108B8DB0F0EE409AB0EE60AAF0EE41AAC3
:102C1000B0EE61BAB0EE428AF0EE628AFE4890ED04
:102C2000000A20EE000AF0EE40FA90ED000AFB48A0
:102C3000D0ED000A20EE200A8DED0C0AF64890ED4A
:102C4000000AF748D0ED000A20EE200A8DED0B0AAD
:102C5000F24890ED000A20EE000A8DED0A0A90ED90
:102C6000000AF048D0ED000A20EE200A8DED090A96
:102C7000EB4890ED000A20EE000A8DED080A90ED79
:102C8000000AE848D0ED000A20EE200A8DED070A80
:102C900090ED000A20EE000A8DED060A2BEE080AE0
:102CA00020EE280AB5EEC00AF1EE10FA03D10DB0FD
:102CB000BDEC108B00BD2BEE0B0A08EE080A08EEE7
:102CC000A80A10EE101A084608F008FACDE9040127
:102CD0009DED040B03F0C8FAB0EE40CAF0EE60CAF6
:102CE00051EC1C0B07F002FC09EE100A8BEE090AEE
:102CF000B0EE40BA88EE090AB0EE408A88EE890A42
:102D0000F0EE408A9DED090ADDED0B0A30EE600A17
:102D1000F0EE000A60EE20BA9DED0C0ADDED070A28
:102D200030EE200AF0EE000A20EE20DA9DED0A0ACD
:102D30007FEEC00A9DED080A70EEC00A9DED060AFE
:102D400070EE80DA28EE2D0AB0EE40EA08EECDEA09
:102D500028EEAB0AF0EE40EA4BEE6DEA2BEE0D0AE0
:102D6000B0EE40FA08EE6BFAAF4890ED000ADFEDE6
:102D7000AF0A0EEE200A80ED000AAD4890ED000A81
:102D8000DFEDAA0A0EEEA00A80ED000AA94890ED38
:102D9000000ADFEDA60A0FEE200A80ED000ADFED43
:102DA000A60AB0EE690A00EE8E0A9F48D0ED000A2E
:102DB00030EE200AF0EE409ADFED9F0AB0EE4A0AAC
:102DC00000EEAE0A9A48D0ED000A30EE200AB0EECE
:102DD00040AADFED990AB0EE6A0A00EE8F0A954824
:102DE000D0ED000A30EE200AF0EE40AA8B4890EDBC
:102DF000000AB1EE400A20EE290A8948D0ED000A07
:102E000000EECA0A8748D0ED000A00EEEA0A8248BE
:102E1000D0ED000A9FED891A40EE010AC0ED000ACC
:102E200090ED000A20EE290A7D48D0ED000A00EE60
:102E3000AA0A7C48D0ED000A00EECA0A7748D0ED15
:102E4000000A9FED7E1A40EE010AC0ED000A7248AA
:102E500090ED000A20EE0A0A7048D0ED000A00EE5C
:102E6000EA0A7048D0ED000A00EEA90A6C48D0EDDD
:102E7000000A9FED721A40EE010AC0ED000A664892
:102E800090ED000A20EE2A0A6448D0ED000A00EE18
:102E90008A0A6348D0ED000A00EEE90A6148D0EDE5
:102EA000000A9FED661A40EE010AC0ED000A5A487A
:102EB00090ED000A20EE000A5848D0ED000A90ED8F
:102EC000001A00EE810A5648D0ED000A90ED001A73
:102ED00000EE810A5348D0ED000A90ED001A00EE92
:102EE000810A10EE101A084608F0F8F8CDE904013E
:102EF0009DED040B03F0B8F9B0EE40CAF0EE60CAE5
:102F000051EC1C0B07F0F2FA09EE100A424890ED62
:102F1000000AC0EE090AC0ED000A404890ED000A20
:102F2000C0EE090AC0ED000A3D4890ED000AC0EE6F
:102F3000090AC0ED000A3B4890ED000AC0EE090AFC
:102F4000C0ED000A354890ED000AF8EE000A20EEC8
:102F5000200AD0ED000A20EE200A3148D0ED000A08
:102F6000B0EE001A60EE810A90ED001A00EEC10A80
:102F7000F7EE000A30EE200A10EE101A084608F0AC
:102F8000ADF8CDE90201264890ED000AF0EE000A06
:102F900020EE200A2348D0ED000A20EE200A1E4829
:102FA000D0ED000AB0EE001A60EE810A1B4890EDE9
:102FB000001A00EE810A10EE101A084608F08EF88A
:102FC000CDE900019DED021B9DED000B03F054F8CF
:102FD000B0EE40CAF0EE60CA9FED190B53EC102B17
:102FE00051EC1C0B07F084FDCDE904019DED040BB1
:102FF00051EC100B07F07AFA13490860074890ED7E
:10300000000AF8EE000A20EE200A0648D0ED000A79
:1030100020EE200A004819E01C03002020030020B5
:1030200024030020280300202C0300206F12833A81
:103030003003002034030020CDCCCC3F8FC2753C40
:103040006666666666A64C4080550020D0ED000A94
:10305000B0EE001A60EE810A434890ED001A00EECF
:10306000810A10EE101A084608F038F841EC1C0BE3
:10307000B0EE4C0AF0EE6C0A02F0E2FC8DED020BB1
:103080001FED110B53EC102B9DED020B51EC100BAF
:1030900007F02EFDCDE904019DED040B51EC100B62
:1030A00007F024FA314948602F4890ED000AF8EE05
:1030B000000A20EE200AD0ED000A20EE200A2C485B
:1030C000D0ED000AB0EE001A60EE810A90ED001A11
:1030D00000EEC10AF7EE000A30EE200A10EE101AD8
:1030E000084607F0FBFF41EC1C0B224890ED000A5C
:1030F000F0EE000A60EE200A1B4890ED000A20EE78
:10310000800A1D48D0ED000AB0EE001A60EE810A78
:10311000174890ED001A00EE810A10EE101A0846CA
:1031200007F0DCFFB0EE4C1AF0EE6C1ACDE90001AE
:103130009DED000B02F0A0FF8DED020B1FED400B8B
:1031400053EC102B9DED020B51EC100B07F0D0FC53
:10315000CDE904019DED040B51EC100B07F0C6F90D
:103160000249886000BFA2E52403002080550020AA
:1031700028030020200300201C0300202DE9F04339
:1031800085B005460020FE490870FE490870FE49DA
:103190000870FE490870FE490870FE490870FE4933
:1031A0000870FE4908702846FFF760FB06462EB9F6
:1031B0000120FB49087005B0BDE8F0830020F84904
:1031C00008703B20EE4908703B241DE2A01EC4B2EB
:1031D000F449A01C085C20B1F349A01C11F8008040
:1031E0000EE0F248005D022804DBF149A01C11F852
:1031F000008005E0EE49A01C085C401C00F0FF08C0
:10320000EC49A01C085C20B1EB49A01C11F800900F
:103210000EE0E648005D022804DBE849A01C11F836
:10322000009005E0E549A01C085C401E00F0FF0985
:103230004B46424629462046FEF788FDDB490855A5
:103240000846005D072806DB192C04DB292C02DC6C
:103250000120CC490870DA49A01C085C04EB840109
:1032600000EB4110285C80BBC948007838BBC948D6
:10327000007820BBD249A01C095C601E00EB8000D6
:1032800001EB4010285CF8B9CD49A01C095CA01ED8
:1032900000EB800001EB4010285CA8B90F2C18DB74
:1032A000C749A01C085C3C2813DBA01C085C6428F0
:1032B0000FDC0120C3490870C3480470A7E1C3486C
:1032C000007818B1C248047003E003E00020C04950
:1032D00008709CE1B948B649B74AB34BCDE9013211
:1032E000CDE903109F20B6490090A01C0A5C012381
:1032F0002946204602F00AFAA248007808B10727BA
:1033000000E00227B348005DB34909783944884298
:1033100026DDA748015D0246A01C105C814205DA4B
:10332000A048005D10B901209E490855A348015DE1
:103330000246A01C105C814205DD9E48005D10B96C
:1033400001209C4908559748005D10B99948005DD7
:1033500070B39148007858B39048007840B356E174
:103360003B2C25D09B48005D0C309A4AA11C515C37
:1033700088421DDA8D48005D022819D18C48015D14
:103380000246A01C105C801D814204DD804800784C
:1033900008B97D4804708948015D0246A01C105C94
:1033A000801F814204DA7B48007808B977480470AE
:1033B0007C48005DC8B3352C1FDB7548007880B9A8
:1033C000734804709FED850A854880ED000A7849AE
:1033D000A01C085C00EE100AB8EE400A814880ED9F
:1033E000000A8048D0ED000A7D4890ED000A204692
:1033F000FEF78CFC6E49085541E065480078F8B945
:10340000634804706048007880B19FED740A744886
:1034100080ED000A6649A01C085C00EE100AB8EEB8
:10342000400A704880ED000A0AE015E001205D497D
:103430005F4B574ACDE900106A496948FEF7F4FE30
:103440006848D0ED000A664890ED000A2046FEF775
:103450005DFC5749085512E04D48007878B14E4858
:10346000007860B94F49A01C085C40B95048015D24
:103470000246A01C105C814201DB474804704D48A5
:10348000005DC8B3352C1FDB4248007880B9414845
:1034900004709FED520A544880ED000A4749A01C71
:1034A000085C00EE100AB8EE400A504880ED000AB1
:1034B0004E48D0ED000A4C4890ED000A2046FEF739
:1034C00025FC3E49085541E032480078F8B93148BA
:1034D00004702E48007880B19FED400A424880ED8C
:1034E000000A3649A01C085C00EE100AB8EE400A3B
:1034F0003E4880ED000A0AE015E002202D492F4BDE
:10350000244ACDE9001039493748FEF78DFE374887
:10351000D0ED000A344890ED000A2046FEF7F6FB95
:103520002649085512E01B48007878B11B480078FE
:1035300060B92049A01C085C40B91F48015D0246E3
:10354000A01C105C814201DC144804701B48005D23
:103550001749095D401A264908551849095D144A5A
:10356000125D881800EBD071C1F34701144A115560
:103570001F48005D1849097888423EDA1C4839E046
:10358000B7010020D8010020CC010020CD0100208F
:10359000B8010020B9010020BA010020BB010020C1
:1035A000B601002010530020205100208C53002031
:1035B000945200204E5300205E510020D252002031
:1035C0009C510020D9010020DA010020EB010020ED
:1035D000DB010020CA530020B401002000000000DD
:1035E000BC010020C4010020C0010020C80100204F
:1035F00008540020005D1B4908701B48005D052829
:1036000000DC04E0194804700F2CBFF6DFAD00BFEA
:103610001748007868B101201649174A174BCDE9C1
:10362000002102902A46164801781148007800F0DF
:1036300085F81448007868B102201349134A144BE6
:10364000CDE9002102902A46124801780D48007801
:1036500000F074F829460548007800F033FE00BFFA
:10366000A9E50000B401002008540020B7010020A3
:10367000B801002010530020945200202051002057
:10368000BA010020B90100204E530020D252002080
:103690005E510020BB01002000210160416081607B
:1036A000C160704710B51D4800781D4908701D485D
:1036B00000781D490870202003F018FE1749087093
:1036C000362003F013FE174908701448007828B11B
:1036D0001348007810B90120144908701148007887
:1036E00028B11148007810B90120114908700F481D
:1036F000007848B100200D4908700E4908700E4846
:103700000078C0430C4908700948007828B10020AF
:103710000749087001200749087010BDD402002035
:10372000D8020020D5020020D9020020DC020020AF
:10373000DD02002044010020100200200FB58FB0F0
:103740001698012845D1FE4801781098814240DC46
:10375000109800283DD00F9835283ADCF9480078B9
:1037600080BB0F98801CC0B20D902CE00D98801E7D
:10377000C0B20D90F4490D98095CF44A801C105CAD
:10378000081A401DF04908900D98085C0246012176
:103790000990089805F0D4FEC2B20D9914984254CD
:1037A000EA490D98801C085CC01EC1B2E74A0D981A
:1037B000115411460D98085C142804DCE4490D9856
:1037C000087005E005E01098801C0D998142CDDA63
:1037D00000BF1698022844D1DE4801781098814233
:1037E0003FDC1098B0B30F9835283ADCDA480078FF
:1037F00080BB0F98801CC0B20D902CE00D98801EED
:10380000C0B20D90D5490D98095CD04A801C105C5F
:103810000844401FD14908900D98085C9F2201463A
:103820000990089805F08CFEC2B20D991498425484
:10383000C6490D98801C085CC01EC1B2C34A0D98D1
:10384000115411460D98085C142804DCC0490D98E9
:10385000087005E005E01098801C0D998142CDDAD2
:1038600000BFDDE90F0188427EDD109800287BD083
:103870001698012803D1B7480078372806DA169839
:10388000022872D1AE48007837286EDB16980128DE
:1038900007D1B34909781498415C90F83B00814204
:1038A0000ADC16980228ECD1AE4909781498415CDC
:1038B00090F83B00814258DAA5490978091D109813
:1038C000884204DB1098001FC0B20C900CE0A049A5
:1038D0000978891C1098884204DB1098801EC0B2B9
:1038E0000C9001E000200C900C9800287DD00C99E1
:1038F0001098401A039007F094F8CDE9060110994A
:103900001498425C0C99405C101A019007F089F8F9
:103910009FED950B53EC102BCDE902019DED020BB1
:1039200051EC100B07F0E4F8CDE904019DED060B16
:1039300053EC102B9DED040B51EC100B06F0BCFE6C
:10394000CDE908019DED080B51EC100B06F0CEFD02
:103950000B909DED0B0ADDED100AF8EE600A20EEEB
:10396000200A8DED030A01E089E3DFE1039807F007
:10397000B5FBCDE9060110991498405C019007F061
:1039800067F89FED790B53EC102BCDE902019DED0B
:10399000020B51EC100B07F0ABF8CDE904019DEDE3
:1039A000060B53EC102B9DED040B51EC100B07F0A4
:1039B000ABFACDE908019DED080B51EC100B06F0B8
:1039C00095FD0A90169801287ED1149890F83B0036
:1039D00000EE100AB8EE401A9DED0A0ADDED0B0A62
:1039E000DFED631A01EEA00A00E011E1B4EEC01AA7
:1039F000F1EE10FA69DD1098801E0F99081A0390F5
:103A000007F00FF8CDE906010F991498425C109861
:103A1000801E1499085C101A019007F002F89FEDBF
:103A2000520B53EC102BCDE902019DED020B51EC32
:103A3000100B07F05DF8CDE904019DED060B53EC8A
:103A4000102B9DED040B51EC100B06F035FECDE96B
:103A500008019DED080B51EC100B06F047FD0B9093
:103A6000DDED0B0A9DED0F0AB8EE400A20EE800A4C
:103A70008DED030A039807F031FBCDE906010F999C
:103A80001498405C019006F0E3FF9FED370B53EC78
:103A9000102BCDE902019DED020B51EC100B07F04C
:103AA00027F8CDE904019DED060B53EC102B9DED9D
:103AB000040B51EC100B07F027FACDE908019DED3E
:103AC000080B51EC100B01E004E009E106F00EFDDB
:103AD0000A9005E116980228FBD1149890F83B0053
:103AE00000EE100AB8EE401A9DED0A0ADDED0B0A51
:103AF000DFED1F1A01EEA00AB4EEC01AF1EE10FAC3
:103B0000E7D21098801E0F99081A039006F089FFDB
:103B1000CDE906010F991498425C1098801E149903
:103B2000085C101A019006F07CFF9FED0F0B53EC20
:103B3000102BCDE902019DED020B51EC100B19E0A9
:103B4000B9010020CC010020D252002008540020EE
:103B5000B7010020B8010020CD01002094520020C0
:103B6000BA010020BB010020000000000000F03F6F
:103B700000006C4206F0BCFFCDE904019DED060B90
:103B800053EC102B9DED040B51EC100B06F094FD43
:103B9000CDE908019DED080B51EC100B06F0A6FCD9
:103BA0000B90DDED0B0A9DED0F0AB8EE400A20EEFA
:103BB000800A8DED030A039807F090FACDE906011B
:103BC0000F991498405C019006F042FF1FED1A0B0C
:103BD00053EC102BCDE902019DED020B51EC100BC3
:103BE00006F086FFCDE904019DED060B53EC102B8A
:103BF0009DED040B51EC100B07F086F9CDE908019F
:103C00009DED080B51EC100B06F070FC0A9067E07C
:103C1000DDE90F01401A039006F003FFCDE906012C
:103C20000F991498425C1099405C101A019006F0AC
:103C3000F8FE1FED330B53EC102BCDE902019DED87
:103C4000020B51EC100B06F053FFCDE904019DED82
:103C5000060B53EC102B9DED040B51EC100B06F0F2
:103C60002BFDCDE908019DED080B51EC100B06F082
:103C70003DFC0B909DED0B0ADDED0F0AF8EE600A9E
:103C800020EE200A8DED030A039807F027FACDE90C
:103C900006010F991498405C019006F0D9FE1FEDC3
:103CA0004E0B53EC102BCDE902019DED020B51ECB4
:103CB000100B06F01DFFCDE904019DED060B53EC42
:103CC000102B9DED040B51EC100B07F01DF9CDE905
:103CD00008019DED080B51EC100B06F007FC0A9053
:103CE0003D200D901DE00D98801EC0B20D909DED01
:103CF0000A0ADDED0D0AB8EE601ADDED0B0A01EEE1
:103D0000200A8DED0E0A9F2201219DED0E0ABDEEC7
:103D1000C00A10EE100A05F013FCC2B20D991498F7
:103D2000425410990D988842DDDCA8E10F9839289B
:103D300003DC0F98801CC0B20F90F4490978091D6C
:103D40001098884204DB1098001FC0B2109009E060
:103D5000EE490978891C1098884203DB1098801E70
:103D6000C0B21090DDE90F01401A039006F059FE31
:103D7000CDE906010F991498425C1099405C101A25
:103D8000019006F04EFE1FED880B53EC102BCDE991
:103D900002019DED020B51EC100B06F0A9FECDE9DE
:103DA00004019DED060B53EC102B9DED040B51EC23
:103DB000100B06F081FCCDE908019DED080B51ECDC
:103DC000100B06F093FB0B909DED0B0ADDED0F0A37
:103DD000F8EE600A20EE200A8DED030A039807F042
:103DE0007DF9CDE906010F991498405C019006F029
:103DF0002FFE1FEDA30B53EC102BCDE902019DED1F
:103E0000020B51EC100B06F073FECDE904019DEDA1
:103E1000060B53EC102B9DED040B51EC100B07F02F
:103E200073F8CDE908019DED080B51EC100B06F07D
:103E30005DFB0A90169801287DD1149890F83B00FC
:103E400000EE100AB8EE401A9DED0A0ADDED0B0AED
:103E50005FEDB91A01EEA00AB4EEC01AF1EE10FA45
:103E600067DDDDE90F01401A039006F0DAFDCDE9C8
:103E700006010F991498425C1099405C101A019049
:103E800006F0CFFD1FEDC80B53EC102BCDE902015E
:103E90009DED020B51EC100B06F02AFECDE904015A
:103EA0009DED060B53EC102B9DED040B51EC100B0C
:103EB00006F002FCCDE908019DED080B51EC100B5A
:103EC00006F014FB0B90DDED0B0A9DED0F0AB8EE2A
:103ED000400A20EE800A8DED030A039807F0FEF8F1
:103EE000CDE906010F991498405C019006F0B0FDF1
:103EF0001FEDE30B53EC102BCDE902019DED020BFE
:103F000051EC100B06F0F4FDCDE904019DED060B1C
:103F100053EC102B9DED040B51EC100B06F0F4FF4D
:103F2000CDE908019DED080B51EC100B06F0DEFA0F
:103F30000A907FE0FFE7169802287BD1149890F84A
:103F40003B0000EE100AB8EE401A9DED0A0ADDEDC6
:103F50000B0A5FEDF91A01EEA00AB4EEC01AF1EEF9
:103F600010FA67D2DDE90F01401A039006F059FDFF
:103F7000CDE906010F991498425C1099405C101A23
:103F8000019006F04EFD9FED620B53EC102BCDE936
:103F900002019DED020B51EC100B06F0A9FDCDE9DD
:103FA00004019DED060B53EC102B9DED040B51EC21
:103FB000100B06F081FBCDE908019DED080B51ECDB
:103FC000100B06F093FA0B90DDED0B0A9DED0F0A36
:103FD000B8EE400A20EE800A8DED030A039807F040
:103FE0007DF8CDE906010F991498405C019006F028
:103FF0002FFD9FED470B53EC102BCDE902019DEDFA
:10400000020B51EC100B06F073FDCDE904019DEDA0
:10401000060B53EC102B9DED040B51EC100B06F02E
:1040200073FFCDE908019DED080B51EC100B06F074
:104030005DFA0A9010980D901DE00D98801CC0B29A
:104040000D909DED0A0ADDED0D0AB8EE601ADDED6A
:104050000B0A01EE200A8DED0E0A9F2201219DED33
:104060000E0ABDEEC00A10EE100A05F069FAC2B2DF
:104070000D99149842540F990D988842DDDD1698D9
:1040800001281FD124480078E0B1234800780D9022
:1040900014E00D98801CC0B20D900D991498405CEE
:1040A0000990881E1499085C401F9F220890099966
:1040B00005F046FAC2B20D99149842540D983B2867
:1040C000E7DB21E0169802281ED114480078D8B109
:1040D000124800780D9014E00D98801CC0B20D902D
:1040E0000D991498405C0990881E1499085C401D35
:1040F00008900121099A05F023FAC2B20D9914988B
:1041000042540D983B28E7DB13B000BDB7010020F7
:10411000000000000000F03FCC010020CD01002095
:1041200070B506462C482D4991F9001050F8210031
:104130002B49B1F9001001FB10642748274991F978
:10414000001050F821002649B1F9001001FB00656C
:10415000002C0FDB42F228320021204605F0F0F956
:1041600004460021082002F055FC21460A2002F0F6
:1041700051FC0EE042F228320021604205F0E0F9E5
:10418000044600210A2002F045FC2146082002F0E6
:1041900041FC002D0FDB42F228320021284605F0B9
:1041A000CFF905460021112002F034FC29461220E7
:1041B00002F030FC0EE042F228320021684205F0A5
:1041C000BFF905460021122002F024FC29461120E7
:1041D00002F020FC70BD000098020020C00000200A
:1041E000C40000201A48C06800F0010028B1012076
:1041F0001749C8601649F83108601548C06900F0D1
:10420000010058B101211248C16102201049F83162
:10421000086010480068401C0E4908600C48C06ADD
:1042200000F0010030B101210948C16204200849B1
:10423000F83108600648C06B00F0010030B1012180
:104240000348C16308200249F83108607047000044
:1042500000D00040BC00002030B501464FF4804043
:104260004300994200DD194621B1012905D00229F8
:1042700007D104E04FF0FF3011E00F480FE00F4886
:104280000DE00A4608E080EA500404F00104C0F39F
:104290004D0545EA8430521C9A42F4D900BF00BF54
:1042A000C0F31000064C2060246844F40034044D30
:1042B0002C602C46206030BD03800100030001000B
:1042C000900500402DE9F0472DED068B80460D4608
:1042D0009FED8D0AF0EE408A9FED8B0AB0EE408A8A
:1042E0009FED8A0BB0EE409AF0EE609A9FED870B3F
:1042F000B0EE40AAF0EE60AA0026002785480078BC
:1043000050B13D2406E000208349085583490855F3
:10431000601E44B2002CF6DA3D24E6E0A01E44B252
:104320007F49095D7F4A125D881800EBD071C1F3A7
:1043300047017D4A115511460A5D0B46A11C595C87
:10434000501800EBD071C1F34702611C5A547448F5
:10435000005D7449095D401A74490855022071498D
:10436000095D04EB840201EB4211685403206C499F
:10437000095D04EB840201EB4211685404201946E4
:10438000095D04EB840201EB4211685404211A46D2
:10439000601C125C00EB800002EB401029545D4869
:1043A000007800287DD06248005D00EE100AB8EE6B
:1043B000400AF0EE408A00EE104AB8EEC00AB0EEB5
:1043C000408A9FED5C0A28EE800ADFED5B0A00EE72
:1043D000880ADFED5A0A70EE600A9FED591AB7EEAF
:1043E000000A01EE080A80EE801A11EE109A484683
:1043F00006F074FE41EC190B9FED520ADFED520AF4
:1044000010EE880A9FED4E1AF7EE000A41EE080AF8
:1044100080EE201A11EE109A484606F05FFE41EC3D
:104420001A0B51EC1A0B06F0CFFAC6B251EC190B6D
:1044300006F0CAFAC7B238488755032006EB860152
:1044400007EB411168544148005D00EE100AB8EED8
:10445000400AF0EE408A00EE104AB8EEC00AB0EE14
:10446000408A9FED340A28EE800ADFED330A00EE21
:10447000880ADFED320A70EE600A9FED311AB7EE5E
:10448000000A01EE080A80EE801A11EE109A4846E2
:1044900006F024FE41EC190B9FED2A0ADFED2A0AF3
:1044A00000E022E010EE880A9FED251AF7EE000AE0
:1044B00041EE080A80EE201A11EE109A484606F0E6
:1044C0000DFE41EC1A0B51EC1A0B06F07DFAC6B248
:1044D00051EC190B06F078FAC7B210488755032043
:1044E00006EB860107EB4111685408F10200844293
:1044F000BFF614AF0C4890F83B000B4981F83D0023
:10450000BDEC068BBDE8F087000000000000000055
:1045100000000000EB01002018520020565200203D
:10452000D2520020945200209C51002008540020B8
:10453000205100205C8F4240295C0F41295C1B43C5
:104540008FC2F53DCDCC0143295C1F415E51002057
:104550007047000000F01F0201219140024A430908
:1045600042F823107047000080E100E000F01F02D5
:10457000012191404209920002F1E022C2F80011AB
:10458000704700F01F02012191404209920002F1A0
:10459000E022C2F80011704710B5002807DA4A0778
:1045A000140E054A00F00F031B1FD45403E04A0702
:1045B000130E024A135410BD18ED00E000E400E0B1
:1045C00030B5014680204300994200DD194621B1F3
:1045D000012905D0022909D105E04FF0FF3017E08D
:1045E00040F2023014E040F2022011E00A460CE0F2
:1045F00080EA900484EAD00484EA101404F00104F0
:10460000C0F3460545EAC410521C9A42F0D900BFD7
:1046100000BFC0F30900054C2060246844F48064A6
:10462000024D2C602C46206030BD00008805004003
:104630002DE9F04F2DED108B87B00027B846B94615
:10464000BA46BB46002005900490002501E0681C96
:1046500005B2FF2D03DC6048405D0028F7D0FF263F
:1046600001E0701E06B2AE4203DD5B48405D0028EB
:10467000F7D0AE4205D1F0B207B0BDEC108BBDE86B
:10468000F08F681CB04201D1E8B2F5E72C4604E097
:104690005148005D0744601C04B2B442F8DD4FF09D
:1046A000000A2C4605E04C48005D00FB04AA601C93
:1046B00004B2B442F7DD9FED49AB2C4686E0464894
:1046C000005D8044A7EB08000590384606F0C0F96D
:1046D00041EC1E0B404606F0BBF941EC1F0B53ECBE
:1046E0001E2B05F0E9FF41EC1C0B384606F0B0F933
:1046F00041EC1E0B059806F094F941EC1F0B53ECAE
:104700001E2B05F0D9FF41EC1D0B3348005D00FB6B
:104710000499AAEB090B404606F09AF941EC1E0BEE
:10472000484606F095F941EC1F0B53EC1E2B05F0A3
:10473000C3FF41EC180B059806F073F941EC1E0B12
:10474000584606F06EF941EC1F0B53EC1E2B05F09A
:10475000B3FF41EC190B53EC192B51EC180B06F07D
:10476000D3FB41EC1E0B53EC192B51EC180B06F04C
:10477000CBFB41EC1F0B53EC1D2B51EC1C0B06F03B
:10478000B7F953EC1F2BCDE900019DED000B51EC67
:10479000100B06F0ADF953EC1E2BCDE902019DED97
:1047A000020B51EC100B06F0A3F941EC1B0B53EC80
:1047B0001A2B51EC1B0B06F099FA05D2B0EE4BAA5E
:1047C000F0EE6BAAE0B20490601C04B2B442FFF6B3
:1047D00076AF049850E70000685400200000000005
:1047E0000000F0BF10B54448007860B96FF02700B2
:1047F000424908800020424908801420414908802D
:1048000001203D4908703C480078012825D13B48EB
:10481000B0F9000000EE100AB8EEC00A3A4880ED88
:10482000000A3A48D0ED020A3448B0F9000000EE20
:10483000100AB8EEC00AF4EEC00AF1EE10FA0CD875
:1048400002202D4908702E48B0F9000000EE100A31
:10485000B8EEC00A2C4880ED000A274800780228EC
:1048600025D12748B0F9000000EE100AB8EEC00AC2
:10487000254880ED000A2548D0ED020A2048B0F90D
:10488000000000EE100AB8EEC00AF4EEC00AF1EE25
:1048900010FA0CDB0320184908701A48B0F9000020
:1048A00000EE100AB8EEC00A174880ED000A124860
:1048B000007803281FD11348B0F9000000EE100A59
:1048C000B8EEC00A104880ED000A1048D0ED020A88
:1048D0000C48B0F9000000EE100AB8EEC00AF4EE81
:1048E000C00AF1EE10FA06DB0020034908700849FF
:1048F000087000F071FB10BDDD010020DE0100201A
:10490000E0010020E2010020CC00002080550020C2
:10491000DC01002070B503461446621A174D95ED70
:10492000000AF1EE400ADD684D1B00EE105AB8EEA9
:10493000C00A60EE800A114D95ED011A00EE102AB2
:10494000F8EEC01AB0EE600A01EE210A02265D6898
:1049500006FB15259E68354400EE905AF8EEE00AF5
:10496000064D95ED021A01EE200ABDEEC00A10EECA
:10497000100A5D689D605A60D96070BDB802002061
:1049800010B504F0F5FA10BD30B501461020202313
:10499000994200DD194621B1012905D0022907D12C
:1049A00004E04FF0FF3011E062200FE042200DE004
:1049B0000A4608E080EA900404F00104C0F34305CD
:1049C00045EA0410521C9A42F4D900BF00BF00F01F
:1049D0007F00054C2060246844F08004024D2C6068
:1049E0002C46206030BD00008C0500402DE9F041D0
:1049F0002DED028B05460E461746BC1B1D481E4971
:104A000091F9001000EB0110D0ED020A6868201A3D
:104A100000EE100AB8EEC00A60EE800A154816498A
:104A200091F9001000EB011090ED001A00EE104A11
:104A3000B8EEC00A41EE000AB0EE608A6C606222F5
:104A40005142BDEEC80A10EE100A04F079FD00EEE6
:104A5000100AB8EEC00AB0EE408A9FED080A30EEA8
:104A6000480ABDEEC00A10EE100ABDEC028BBDE88C
:104A7000F081000028020020C000002000804F4488
:104A80002DE9F0412DED0A8B04460E461746BD1B5D
:104A90006168681A05F0C5FF41EC1A0B284605F05D
:104AA000C0FF41EC1C0B9FED160B53EC102B06F0D6
:104AB0001FF841EC1B0B53EC1A2B05F049FD41ECA0
:104AC000190B05F013FD08EE100A656062225142D1
:104AD000BDEEC80A10EE100A04F032FD00EE100A16
:104AE000B8EEC00AB0EE408A9FED070A30EE480AE1
:104AF000BDEEC00A10EE100ABDEC0A8BBDE8F081D5
:104B00009A9999999999C93F00804F442DE9F041AC
:104B10002DED028B04460E461746F51B05EB85006E
:104B200040006168691A022202FB010000EE100ACF
:104B3000B8EEC00AB0EE408A656062225142BDEE16
:104B4000C80A10EE100A04F0FBFC00EE100AB8EEE2
:104B5000C00AB0EE408A9FED060A30EE480ABDEE6C
:104B6000C00A10EE100ABDEC028BBDE8F081000017
:104B700000804F4400210160416081607047000067
:104B800010B50121322002F021FC012009490870F2
:104B90000948B0F90000B0F57A6F09DB0020087011
:104BA00005490880054908700021322002F00EFCFA
:104BB00010BD0000D8000020D6000020EA0100202F
:104BC0002DE9F0412DED088B3D260027FDF73EFF36
:104BD00034483549097810F8110034490978884279
:104BE0000DDB30483049097810F811002F49087062
:104BF0002C482D49097800EB4100467800E03D261D
:104C00002B48007818B929480078392807DB29484B
:104C10000078502801DC01253FE09F253DE0344627
:104C200004E02548005D0744601EC4B21F480078B8
:104C30008442F6DA701C1D490978401A97FBF0F09F
:104C4000C5B21C48007805F003FF41EC1B0B9FED3B
:104C50001B0B53EC102B05F04BFF41EC190B2846B6
:104C600005F0F6FE41EC1B0B9FED160B53EC102BE1
:104C700005F03EFF41EC1A0B53EC192B05F068FCD4
:104C800041EC180B05F0A0FEC5B29F220121284679
:104C900004F056FCC5B2074805702846BDEC088BE9
:104CA000BDE8F0811302002012020020B7010020AD
:104CB000B60100201E0200209C5100209A9999996B
:104CC0009999C93F9A9999999999E93F10B54D4891
:104CD000806840F001004B4988604B480078401CD8
:104CE00049490870084600780C2801DD0120087049
:104CF00000F0A8F94448007801280BD04248007819
:104D0000042807D040480078072803D03E480078A0
:104D10000A283BD13D480078C8B13D4802683D486B
:104D200001683D48FFF7F6FD3C49096808443B49E6
:104D3000086042F2283251423848006804F000FC12
:104D40003649086008460068FFF7EAF91EE0344873
:104D50000078C0B10020314908603248006814284A
:104D600003DD3148FFF7DCF910E02E48006810F150
:104D7000140F04DA4FF47A70FFF7D2F906E000203E
:104D8000FFF7CEF902E00020FFF7CAF90221032065
:104D900001F05AFB254908800221042001F054FB50
:104DA000234908801848007803280BD0164800785B
:104DB000062807D014480078092803D01248007844
:104DC0000C280CD11B48FDF77FFEFFF731FC1A4978
:104DD0000870084600783C2801DA3C2008700A4830
:104DE000007802280BD008480078052807D006482C
:104DF0000078082803D0044800780B2801D1FDF77B
:104E00007FFE10BD00D00240B80000204401002009
:104E1000400100205401002058540020500100207F
:104E2000450100203801002078ECFFFFCA02002075
:104E3000CC020020602B0020BB00002010B52DED1F
:104E4000028B554802780321002003F0C8FE534826
:104E500002780321202003F0C2FE514890F8502030
:104E60000321402003F0BBFE4E480288042110209D
:104E700003F06BFE4C484D4A92F9002000EB021003
:104E800090ED000A10EE101A084606F027F941ECE2
:104E9000180B01230222B0EE480AF0EE680A042142
:104EA000402003F097FD4248404991F9001010F866
:104EB00021200421802003F092FE3E480288052133
:104EC000102003F042FE3848384A92F9002000EBE7
:104ED000021090ED020A10EE101A084606F0FEF8D5
:104EE00041EC180B01230222B0EE480AF0EE680AEA
:104EF0000521402003F06EFD2F4890ED020ABDEE23
:104F0000C00A10EE102A05231946802003F0CEFDBA
:104F10002A4802880621102003F017FE284802784C
:104F20000621482003F05BFE234890ED010ABDEE08
:104F3000C00A10EE102A05230621802003F0B6FDDA
:104F40000523204807210268282003F0AFFD1E48F2
:104F500002780721782003F042FE1C480078C0B197
:104F60003C22A0211A4803F033FB002019490870A5
:104F70000BE04FF4784217480178502003F064FBAF
:104F800014480078401C13490870124800783C28E7
:104F9000EFDDBDEC028B10BDF0010020D20000203F
:104FA000C04D0020CA02002028020020C0000020BE
:104FB00098020020CC02002080550020C200002072
:104FC000C800002054010020C4020020100200206C
:104FD000E005002011020020184890F90000072881
:104FE00025D2DFE800F004080C10151A1F00C820B5
:104FF000134908601FE0E620114908601BE0FA2011
:105000000F49086017E04FF482700D49086012E004
:105010004FF487700A4908600DE040F21310084908
:10502000086008E04FF496700549086003E000202E
:105030000349086000BF00BF70470000C0000020A7
:105040004001002070B52DED088B182001F00CFCFC
:105050000446022001F008FC0546182001F0A2FBDE
:10506000022001F09FFB052002F040F900B100E0B2
:105070006442032002F03AF908B16D4200E000BF3B
:10508000601900EBD0714910774A116077480078B9
:1050900038B17748008811460988084400B274493D
:1050A00008807148006873490968401A72490860AD
:1050B00008460068642802DD0120704908706A48CB
:1050C00001686F480068C830814202DD02206B49E8
:1050D00008706548006810F1FA0F02DAFF2067498E
:1050E00008706648007888B16348006864280DDC61
:1050F0005D48016862480068C830814206DA5A4853
:105100000068002802DD00205C4908705B480078D8
:1051100050BB5848006805F084FC41EC1B0B9FED28
:10512000590B53EC102B05F0E3FC41EC190B4E48E6
:10513000006805F076FC41EC1B0B9FED540B53EC23
:10514000102B05F0D5FC41EC1A0B53EC192B05F094
:10515000FFF941EC180B05F007FC434908600846CD
:1051600000684449086029E04248006805F059FC9D
:1051700041EC1B0B9FED470B53EC102B05F0B8FCDB
:1051800041EC190B3848006805F04BFC41EC1B0B57
:105190009FED400B53EC102B05F0AAFC41EC1A0BD1
:1051A00053EC192B05F0D4F941EC180B05F0DCFB9E
:1051B0002D490860084600682E4908602F4800788D
:1051C00030B92E48007888B12748006814280DDAD5
:1051D00032480068401C31490860084600682828A9
:1051E00007DB002008602E49087002E000202349F8
:1051F0000870224890F90000002804DD1D4800686E
:105200002849086003E018480068264908602648D5
:10521000006805F006FC41EC1B0B9FED1A0B53ECEC
:10522000102B05F065FC41EC1A0B1E48006805F0D8
:10523000F8FB41EC1B0B9FED150B53EC102B05F00D
:1052400057FC41EC190B53EC1A2B05F081F941EC9A
:10525000180B05F089FB13490860084600681249DD
:105260000860BDEC088B70BD54010020D800002000
:10527000D6000020580100205C01002048010020D9
:10528000400100209A9999999999B93FCDCCCCCCFD
:10529000CCCCEC3F000000000000E03F6C0100209F
:1052A00044010020380100206801002010B5394871
:1052B00003F0E6FE3848007800283ED037480078F2
:1052C00040B90120364908706B204870084603F049
:1052D00001FF0AE031480078401C30490870084658
:1052E0000078142801DB002008702A4840786B28D9
:1052F0000DD101202B49087000202B490870012096
:105300002A4908702A48007814382A4908702A481F
:10531000B0F9000041F2707188420EDB0020214993
:10532000087001202049087000201B49087022499C
:1053300008801F4800781F4908701A48007840B359
:105340001548007828BB1D48007888B91C480078AB
:1053500070B91C480088401C1A490880084600881B
:10536000B0F5967F04DB0020088001201449087006
:105370001348007868B11148007850B11248FEF720
:10538000CFFE012004490870074908700020054934
:10539000087010BDE050002047010020640100208B
:1053A000005100204401002045010020D8000020C9
:1053B000C6000020C7000020D6000020D801002031
:1053C000700100207201002028F1FFFF10B536485F
:1053D000006840F47000344908604FF4805133484D
:1053E00001600C213148E03801608905D1F80012D4
:1053F000896B086880474FF04070D0F80002806BDE
:10540000046900231A4601210320A0472848006BA5
:1054100000F0400018BB4FF04071D1F80012896BCA
:10542000086880474FF04070D0F80002806B4168F8
:10543000082088474FF04070D0F80002806BC468A5
:1054400000231A4601210320A0474FF04070D0F8F6
:105450000002806B436940220021032098474FF0EF
:105460004070D0F80002806B8168082088474FF4B4
:1054700080518804C0F848120E480B4980390860F2
:105480000D48C906C1F840024FF4B051074820301A
:105490000160382005490839086047F21A000749B9
:1054A000086004F009F810BD88ED00E02802004013
:1054B000005001400000000000E023000004004014
:1054C00010B540F23E323221202001F0F5FA0022E0
:1054D00044F26821082001F0EFFA002244F268212A
:1054E0000A2001F0E9FA002244F26821122001F0BA
:1054F000E3FA002244F26821112001F0DDFA03F002
:10550000B1FCFFF769FD03F0ADF801F099F8182040
:1055100001F056F9022001F053F920230022114630
:10552000052001F0EFFE202300221146032001F0A8
:10553000E9FE1F48008800EB800040004FF47A71BC
:105540004843C117024603F017FF262000F01F0250
:10555000012191404209920002F1E022C2F80011BB
:1055600000BF202300221146184601F0CBFE202365
:1055700000221146362001F0C5FE00231A46012103
:10558000322001F0BFFE032000F098FF042000F05D
:1055900095FF0848FFF7EEFA0748FEF77DF803F09D
:1055A00009FD2023002211462B2001F0ABFE10BD87
:1055B000640000204854002058540020002000219E
:1055C00000222D210AE0084B5B5C034418B2064B15
:1055D0005B5C0BB1531CDAB24B1E59B21929F2DADB
:1055E00090FBF2F318B270471852002000200021FF
:1055F00000222D210AE0084B5B5C034418B2064BE5
:105600005B5C0BB1531CDAB24B1E59B21929F2DAAA
:1056100090FBF2F318B27047565200202DE9F04388
:1056200004460D461746079E4FF0000C1A46B0463A
:10563000194619E0BCF1000F09D104EB840001EB1D
:105640004010285C68B10A464FF0010C0AE004EBF8
:10565000840001EB4010285C18B9481E00F0FF08D8
:1056600004E000BF481CC1B2B142E3DD00BFBCF1A1
:10567000000F02D10020BDE8F08308EB020000EB30
:10568000D079C9F3470987F80090A8EB0200C0B2AF
:10569000F1E70000F0B504460D460020012616553E
:1056A0009F261E55012115E040B904EB840601EB4D
:1056B0004616AE5D5EB11155012009E004EB84068B
:1056C00001EB4616AE5D16B94E1E1E5504E000BF36
:1056D0004E1CF1B2A029E7DB00BF70B1165D074F89
:1056E0003E551E5D064F3E551E5D175DF61B054F70
:1056F0003E553E46365D044F3E55F0BD9452002067
:10570000D2520020CA530020085400202DE9FF5F28
:1057100004468A469B46DDE90F89DDE911560120E2
:105720007B4908557B4908559F220121584603F0C3
:1057300007FF00F0FF0B7649A01C085C48B1A01CD5
:10574000285CA0F11E019F22584603F0F9FE00F0EC
:10575000FF0B9F2201210E9803F0F2FEC0B20E90C3
:105760006C49A01C085C48B1A01C305C00F11E0212
:1057700001210E9803F0E4FEC0B20E900E9809F8D5
:10578000040008F804B0029F1EE004EB840007EB5D
:1057900040101AF80000A8B900205D490855781C8F
:1057A00008F8040018F80420A11C18F8011050187B
:1057B00000EBD071C1F34702611C08F80120781C8E
:1057C000285503E0781EC7B25F45DEDA00BF029FAE
:1057D0001EE004EB840007EB40101AF80000A8B9A3
:1057E00000204C490855781E09F8040019F80420D7
:1057F000A11C19F80110501800EBD071C1F3470239
:10580000611C09F80120781E305504E0781CC7B2ED
:105810000E988742DDDD00BF3D49A01C085C38B111
:10582000295DA01C285C814202DC01203849085512
:105830003849A01C085C38B1315DA01C305C814245
:1058400002DB0120334908553148005D18B3A01C24
:10585000295CA01E00EB800001EB40101AF800004C
:1058600048B1A01C295C201F00EB800001EB401018
:105870001AF8000050B9002025490855A01C285CE2
:1058800008F80400A01C285C285508E0372C03DB2E
:1058900098F83B00285502E0A01C285C28551D48BC
:1058A000005D18B3A01C315CA01E00EB800001EB72
:1058B00040101AF8000048B1A01C315C201F00EB1A
:1058C000800001EB40101AF8000050B90020114987
:1058D0000855A01C305C09F80400A01C305C305551
:1058E00008E0372C03DB99F83B00305502E0A01CA0
:1058F000305C305519F8040018F80410401A0649B5
:105900000855305D295D401A04490855BDE8FF9FE0
:10591000105300204E530020CA530020085400208A
:105920002DE9F04304460D461746079E4FF0000C44
:1059300098463246314619E0BCF1000F09D104EB1C
:10594000840001EB4010285C68B10A464FF0010C5E
:105950000AE004EB840001EB4010285C18B9481CF5
:1059600000F0FF0804E000BF481EC1B29942E3DA2C
:1059700000BFBCF1000F02D10020BDE8F08302EBB4
:10598000080000EBD079C9F3470987F80090A2EB33
:105990000800C0B2F1E70000F0B504460D46002053
:1059A000012616559F261E559F2115E040B904EB90
:1059B000840601EB4616AE5D5EB11955012009E083
:1059C00004EB840601EB4616AE5D16B94E1C165567
:1059D00004E000BF4E1EF1B20029E7DC00BF70B149
:1059E000165D074F3E551E5D064F3E551E5D175D09
:1059F000F61B054F3E553E46365D044F3E55F0BD05
:105A000094520020D2520020CA5300200854002093
:105A100003B401984100009850EAC12018BF042047
:105A20004A0D18BF40F0010040F2FF72B2EB515F27
:105A300008BF40F00200012808BF052002B07047EF
:105A400070B5C1482DED020B2DED0E8B82B0119D6E
:105A500025F000449FEDBEDB9FEDBFEB84423EDBB3
:105A6000A4F140511098A1F17F6108430FD0BC48C8
:105A7000844202DC28D1109830B39DED100B02B0A7
:105A8000BDEC0E8B02B0BDE8704000F0A6BC9DEDF1
:105A9000100B53EC1D2B51EC100B05F029F89DED6C
:105AA000100B41EC180B53EC1E2B51EC100B05F0B6
:105AB0001FF853EC182B04F04BFD41EC100B02B017
:105AC000BDEC0E8B02B070BD0120FAF7DEFD02B016
:105AD000BDEC0E8B02B0BDE8704000F095BCA14853
